:020000041000EA
:1000000000B5324B212058609868022188439860DF
:10001000D860186158612E4B002199600221596106
:100020000121F02299502B49196001219960352056
:1000300000F044F80222904214D00621196600F024
:1000400034F8196E01211966002018661A6600F04E
:100050002CF8196E196E196E052000F02FF8012189
:100060000842F9D1002199601B49196000215960AB
:100070001A491B48016001219960EB211966A021F2
:10008000196600F012F800219960164914480160C1
:100090000121996001BC002800D000471248134993
:1000A000086003C880F30888084703B5996A0420EC
:1000B0000142FBD001200142F8D103BD02B5186610
:1000C0001866FFF7F2FF186E186E02BD00000240BE
:1000D000000000180000070000035F00212200005C
:1000E000F4000018222000A00001001008ED00E03C
:1000F00000000000000000000000000074B24E7A12
:1001000000200420F7010010CB010010CD010010E9
:10011000C9010010C9010010C9010010C901001077
:10012000C9010010C9010010C9010010CF01001061
:10013000C9010010C9010010D1010010D301001045
:10014000C1010010C1010010C1010010C101001067
:10015000C1010010C1010010C1010010C101001057
:10016000C1010010C1010010C1010010C101001047
:10017000C1010010C1010010C1010010C101001037
:10018000C1010010C1010010C1010010C101001027
:10019000C1010010C1010010C1010010C101001017
:1001A000C1010010C1010010C1010010C101001007
:1001B000C1010010C1010010C1010010C1010010F7
:1001C000EFF30580103800BE00BE00BE00BE00BECA
:1001D00000BE00BEF2EB887138F8031054F803102B
:1001E0003802001090A31AE700201E49086006C8D4
:1001F00081F3088810471C480068002801D00020BF
:10020000F3E70DA40ECC002902D000F012F8F9E7B4
:100210001649174A002000E001C19142FCD115495E
:100220008847154988471549884700BEFDE701C939
:1002300001C29A42FBD3704754F80310C00000205B
:100240007005002004FD03100000042000000420BD
:1002500004FD031000100420001004200000000022
:100260007047000008ED00E0000000D0700500209D
:10027000BC13002085380010810200107D3800106A
:1002800010B503F01DFD002810D10121002003F05E
:1002900007FDFA20400000F0EDFF0021002003F0F0
:1002A000FFFCFA20400000F0E5FFEEE701204042AD
:1002B00010BDC046094A83009A1810B51468402240
:1002C000544080322240064CC000A44663441A6069
:1002D000044B9C466044416010BDC04604C00140D0
:1002E00004D0014000400140074B8000C3181B6848
:1002F000C90092000A435A400C231340034A944613
:10030000604403607047C04604C0014004D001400F
:100310008000002905D0064B9C4602236044036000
:100320007047044B9C46022360440360F8E7C046D4
:1003300004E0014004F00140D0231B061B6830B5E7
:100340005C000500E418C3080720284080008140B5
:100350001800094D3C30240180009B0041511B19BD
:10036000002A04D0054A94466344196030BD044A0B
:10037000944663441960F9E7004001400061014080
:1003800000710140D0231B061B6870B5064D9B0011
:100390005C59204205D104430D205C5100F062F904
:1003A00070BD01F021FAC046A012002010B5040073
:1003B0000D2000F041FAD0231B061B6802499B0068
:1003C0005A58A2435A5010BDA01200200123D02237
:1003D0008340120693629361094A83009A18116858
:1003E0004022514080320A400649C0008C46634496
:1003F0001A60054B9C460523604443607047C04625
:1004000004C0014004D00140004001400FB400B5D9
:10041000084883B003F0AAFB049B002B07D005A972
:100420001800019103F00EFA034803F09FFB01202E
:1004300003F020FAB07B0010747F0010EFF31080FF
:1004400072B6034A1368002BFCD0BFF35F8F70476E
:100450002C0100D0BFF35F8F0022024B1A6080F3A3
:10046000108870472C0100D070B5EFF3108C72B675
:100470000D4D2B68002BFCD0BFF35F8F0724CB08FA
:10048000C618C05C01230C40A3401C00044003427A
:1004900007D118433070BFF35F8F2C608CF3108846
:1004A00070BD1000FFF7B2FF2C0100D0F8B5474631
:1004B000CE46884680B5EFF3108C72B6214D2C687D
:1004C000002CFCD0BFF35F8F9A422CD8D4080727AA
:1004D000055D061901241740BC402C421FD007219E
:1004E0000127894609E0D408055D06194C46390004
:1004F0001440A1400C00294211D001329342F2D2A3
:1005000001204042BFF35F8F00220E4B1A608CF334
:10051000108800280FDBC0BCB946B046F8BD2543A3
:1005200010003570EEE7BFF35F8F00232B608CF374
:100530001088012040424346002BECD00898FFF77A
:1005400065FFC0462C0100D030B5EFF3108C72B6B9
:100550000A4C2368002BFCD0BFF35F8F07230122D6
:100560000B409A40CD08435D93434355BFF35F8FE3
:10057000002323608CF3108830BDC0462C0100D0CE
:10058000044A1078431CDBB2172B00D910231370D8
:100590007047C046B80400200021044B044ABFF352
:1005A0005F8F02C39342FAD17047C046000100D06A
:1005B000800100D0054B064A1360064A1360536061
:1005C0009360D36013615361936170478080808032
:1005D00000E400E004E400E01F2318401E3B8340D9
:1005E000002905D0C021044A4900535013607047C8
:1005F000802201498B50FAE700E100E001238022CC
:100600008340024952008B507047C04600E100E031
:1006100010B5EFF3108C72B60F4A1368002BFCD0A4
:10062000BFF35F8F0D4B10309B6880001B580C4A46
:10063000934201D099420CD1084B9B681950BFF3EB
:100640005F8FBFF35F8F0022034B1A608CF310881B
:1006500010BD01F0C9F8C046240100D000ED00E053
:10066000C1010010F0B557464E46DE464546E0B59E
:100670008A4685B00600EFF3108972B662490B68AE
:10068000002BFCD0BFF35F8F0021604B59568C4686
:10069000002900DAB5E049000D005D4C6544AD006D
:1006A00067190291B979103619705A4BB1009B68DD
:1006B00001915B58191B2F2920D80121180088436C
:1006C000C679964200D873E09B46029B019E9846ED
:1006D000039507E04D006D18AD006519EB79934265
:1006E00039D92800062141560029F3DA45460295FA
:1006F000051D03955B46484D019643E047498B42F3
:1007000000D07EE0464B47496353474B0235043BDC
:1007100065195B1B1B055B0D0B437B80434BFA711B
:10072000BB80FF23BB715346BB6001233B43394A67
:10073000019992685350BFF35F8FBFF35F8F002220
:10074000314B1A6089F3108805B0F0BCBB46B24645
:10075000A946A046F0BD019646460296061D039D99
:10076000039686885B4676053615B346039E0435A8
:10077000B046C3445E466519751BE0262D056D0D18
:1007800036023543039E043FBF1B3F05254E7F0DB8
:10079000374366468780867102986044800024183B
:1007A000E27152462248A5802060A171A260BEE796
:1007B000204BFA719C46030066461B1B5B415E435F
:1007C000360DB446AE1CB046A0444646144B6353A7
:1007D000154B0435043B9B1B1B05124E5B0D33432D
:1007E0007B806319C31A043B1B055B0D3343BB803D
:1007F0006346BB715346BB600D4B03603B000B432C
:1008000095E700F0F1FFC046240100D0B9130020A5
:10081000BC04002000ED00E001BD0000C10100109B
:1008200000A1FFFF00E0FFFFEC04002001BDFFFF7F
:1008300001488047AAAA0000F0B5DE4657464E465A
:100840004546E0B583B0EFF3108C72B6634A136887
:10085000002BFCD0BFF35F8F614B624C9A680300A2
:1008600010339D005259A146A2423DD08A424ED03B
:100870005D4C161B2F2E37D80127BA4687405B4E9A
:10088000B04636683E401F27B3465646384086403D
:100890004746802001963E50BFF35F8FEFF30580FF
:1008A0008046002835D0834200D094E010005346A3
:1008B00098438668B14208D17BE07B00DB199B003E
:1008C000E3189E68B14236D018000627C757002F9C
:1008D000F3DAB14259D05B46002B27D0C021434BFD
:1008E00001984900585018603D4B9B685A51BFF31E
:1008F0005F8FBFF35F8F0022384B1A608CF3108834
:1009000003B0F0BCBB46B246A946A046F0BD2200EB
:10091000EAE71000534698438668B142D5D10626CF
:1009200086570300002E0ADA4A4636E080232F4914
:100930000198C850D8E706269E57002E26DB710086
:10094000881980002718B846BF689F604746FF791E
:10095000DF714746BF797FB29F71002F27DB474683
:10096000BF887F053F15B846E0278044E01A404421
:100970000005400D3F02384398808B191C499B00AD
:100980000878E31898710E70A5E703004146002926
:1009900014D1FF318171174981801548017899710F
:1009A00015491B1B5B415943090D017093E713481F
:1009B000E2E7062686570300002EC0DA10491148E8
:1009C000C91A08394C02640D204398800E48490822
:1009D0000143D9807FE700F007FFC046240100D023
:1009E00000ED00E0C1010010BC04002000E100E0C7
:1009F000B913002001BDFFFFAAAA000001BD00003D
:100A0000F604002000F0FFFF00F8FFFF10B5830898
:100A1000040003202040FF24054AC000944684407F
:100A200081409B0063441A68A2430A431A6010BDC8
:100A300000E400E070B501240443EFF30581EFF317
:100A4000108C72B6214A1368002BFCD0BFF35F8F65
:100A50001F4B05001F4AED1A6D416A43120D1E4DD2
:100A60008900AE6852B27658A6421CD0062159566B
:100A700091421CD012215956914222D01E21595622
:100A8000914220D02A2159560324914210D0134B71
:100A900019781A708171BFF35F8F00220B4B1A60B7
:100AA0008CF3108870BDAB680D4C5C50EFE70024F0
:100AB0006100091989005B18FF2199710949998022
:100AC000E5E70124F4E70224F2E7C046240100D060
:100AD000BC040020AAAA000000ED00E0B913002029
:100AE000C101001001BDFFFF1F2110B5091A024806
:100AF000FFF72AFD10BDC046BA13002010B5084B01
:100B0000084C82B001000093002205232000FFF76B
:100B1000CDFC002801DB1F23181A02B010BDC0460F
:100B2000C07B0010BA13002070B504000E00150041
:100B3000FFF726FD0100200000F006F8A680E58002
:100B4000BFF35F8F70BDC046024B9C466144890075
:100B50000160704740000034F8B5134D134E2C006F
:100B6000FF27B5421ED22368002B0FD0FFF708FDE8
:100B700001002800FFF7E8FFA780BFF35F8F08346C
:100B8000B4420FD223682500002BEFD1FFF7F8FC09
:100B900001002800FFF7D8FF2771BFF35F8F0834EB
:100BA000B442EFD3F8BDC0466805002070050020B0
:100BB00010B50400FFF7E4FC01002000FFF7C4FFBC
:100BC000FF23A380BFF35F8F10BDC04640BF00204E
:100BD00000217047F0B5DE4657464E464546E0B523
:100BE00083B0EFF3058203231340B24A99005258B1
:100BF0000191904601229A40AF4B00921A6008235F
:100C000043449946009BAD484363434608229B5E9C
:100C10009A46002B00DBBDE043469B881BB2002BAD
:100C200000DA2BE143461B69EFF3108272B61968B4
:100C30000029FCD0BFF35F8F43469E8801234146C5
:100C40005B428B8036B20B69BFF35F8F0021196066
:100C500082F31088002E24DB43465D697400A419DA
:100C6000E4002C19A36849469A46434608229A5E36
:100C7000E068002A08DA0EE0874200D17EE0190021
:100C80000023CA5E002A06DB53009B18DB00EB182A
:100C9000DF688742F0DD0E800023E65E2280002EB2
:100CA000DCDA43460821595E002900DAE6E04346D3
:100CB00082485A6984464B005B180199DB00D318BF
:100CC0006144826A9D68DC680B69AE1A9B1A9E4279
:100CD00019D3036A009A1A4215D043469B79002B18
:100CE00016D1764800F0CAFB8C4204DC00D089E7BC
:100CF000854200D886E740BF03B0F0BCBB46B24691
:100D0000A946A046F0BD43460D619B79002BE8D073
:100D1000002342469371434608229A5E4846531C7C
:100D2000DFD047460026A846A34602E00800531C31
:100D300020D053007D699B18DB00E9181400EA5E9F
:100D40004B881BB2002BF1DA02803B69EFF3108A6B
:100D500072B61D002B68002BFCD0BFF35F8F7B8821
:100D60000B803B697C80BFF35F8F1E608AF3108825
:100D7000531CDED145465C46B846B2E79F685745EE
:100D800000D87CE70E800023E65E2280002E00DB88
:100D900064E786E7424652695B0093465344DB00B2
:100DA0009B445B469E68DF6800F068FB8F422ADC4C
:100DB00030D05B461B69022B32D040465A4659461A
:100DC0000824005F528800044969104398470400D2
:100DD0000D0023002B432FD0002D49DA30003900BD
:100DE000001BA9415B469860D96000229A5E002AE8
:100DF00009DB43465D6953009C18E4002C19A76881
:100E0000E4688C425CDD43469B881BB2002B00DA11
:100E100047E707E78642F6D85B461B69022BCCD131
:100E20005B465C69200023699847002804D0656808
:100E3000246823002B43CFD15B4642461B88138195
:100E40001269EFF3108372B611680029FCD0BFF36A
:100E50005F8F4246594652880A8042465146518029
:100E60001269BFF35F8F0021116083F31088CAE716
:100E7000124800F003FB00196941B3E70F4C200052
:100E800000F0FCFA80220023A44612068018594183
:100E9000019AA56A62441369461B5B1B9E4201D2FC
:100EA000106128E7236A009C1C4200D023E71061F0
:100EB00021E7C046901200203C70054000400540EC
:100EC0008C4201D187429ED84646328108360CE0DA
:100ED0008C4214D01E000023F25E002A0ADB53006D
:100EE0009C18E4002C19A768E4689B18DB00EB1839
:100EF0008C42EDDD5B461A805346338083E78742A0
:100F0000E8D9F7E770B52C4C2569002D00D070BDED
:100F10002A4E0321300000F0A7FAE660FFF730FB0D
:100F2000274B03229C46D02322701B061B680121FD
:100F30006370244B6044A3600F2380002061022073
:100F4000638063694942A180198002311986473163
:100F50001D83585218315A5275325C3999521832E1
:100F60000131995218320131995218320131995296
:100F7000083518329D520231183299521832013117
:100F8000995218320131995218320131995218325E
:100F9000013199521832013199520B4B0B49DC60E7
:100FA00001303562FFF734FB01210320FFF714FB0A
:100FB000074B1D60ABE7C04604050020004005401C
:100FC00040000034FFFF100090120020D50B0010ED
:100FD000386005400048704704050020F8B51F0040
:100FE00008AB1B7804001600002B08D100F04EFA65
:100FF00032003B00121A8B41002B00DA53E02269C9
:10100000EFF3108072B61368002BFCD0BFF35F8F34
:101010000223E15E63694A005218D2009B1800293E
:1010200037DB1A8862802269BFF35F8F0025156065
:1010300080F31088069A9E60DF601A61079A5A61F1
:101040005A8801325204520C101C002A1FD082B25E
:101050005880080410432669EFF3108772B632688F
:10106000002AFCD0BFF35F8FA2881A80A180236979
:10107000BFF35F8F00221A6087F310880B49237833
:101080008C4601329A40E36863441A60F8BD01203F
:10109000DDE72369BFF35F8F00221A6080F31088B9
:1010A00001204042F2E70020F0E7C0463C2000006B
:1010B00070B501000469EFF3108C72B62068002847
:1010C000FCD0BFF35F8F02200D5E4C6968004019B1
:1010D000C0002418002D37DB208848800869BFF342
:1010E0005F8F002606608CF31088E36063880498A5
:1010F000013320615B0405985B0CA26060611A1CDF
:10110000002B1FD093B22804628018430A69EFF3C2
:10111000108C72B61368002BFCD0BFF35F8F8B88E6
:1011200023808D800B69BFF35F8F00221A608CF3E0
:1011300010880B7801329A40CB6808498C4663448A
:101140001A6070BD0122DDE70B69BFF35F8F0022DB
:101150001A608CF3108801204042F2E73C20000026
:1011600010B543890A1493421ADD53009B18426953
:10117000DB00D3180469EFF3108C72B62268002AE2
:10118000FCD0BFF35F8F5A88090494B2090C8A42DD
:1011900008D00369BFF35F8F00221A608CF31088B8
:1011A000002010BD8022120214435C8001230269DA
:1011B0008371BFF35F8F002111608CF310880449A5
:1011C00002788C469340C268012062441360E8E7CD
:1011D0003C200000F0B504000D0006267642F7170B
:1011E00036196F4183B08F4212D80FD000F04EF9FC
:1011F00032003B00121A8B41002B13DC002B30D045
:101200002000290000F04CF903B0F0BD8642EDD972
:101210000026002700F03AF932003B00121A8B41F9
:10122000002BEBDD00F032F932003B00121A8B414B
:10123000002B0ADB002301930B4B320000930B4879
:101240003B00FFF735FF0028DADB3900084A536A14
:10125000994204D8906AB042D2D29942D0D120BFEC
:10126000F5E7002ACCD0DDE7CD0B00100405002007
:1012700000400540F0B583B0040000F007F9FA2201
:1012800006000F00002320000021920000F076FFEE
:101290008023801979411B0604000D00994202D376
:1012A0000124244D644206267642F71736196F4111
:1012B000AF4212D80FD000F0E9F832003B00121A0A
:1012C0008B41002B13DC002B30D02000290000F0D4
:1012D000E7F803B0F0BDA642EDD90026002700F0E4
:1012E000D5F832003B00121A8B41002BEBDD00F0E9
:1012F000CDF832003B00121A8B41002B0ADB002391
:1013000001930D4B320000930C483B00FFF7D0FED9
:101310000028DADB39000A4A536A994204D8906AF5
:10132000B042D2D29942D0D120BFF5E7002ACCD02A
:10133000DDE7C046FFFFFF7FCD0B00100405002056
:1013400000400540F0B5CE46474680B504000D008C
:1013500083B0EFF30587002F0DD0404A0020536A79
:101360008B4203D3926A0130A24234D303B0C0BC93
:10137000B946B046F0BD3A4B9846DB6899464346BD
:1013800048461E7800F07AF80B0049460200043601
:10139000B600715820008E1A2900801A99418F4298
:1013A00020DC1DD02D4A2B00516A8D4205D8926A4F
:1013B0000120A242DAD28D42D8D120BF27494A6A01
:1013C00093423DD88B6A0120A342CFD2AA1A531E62
:1013D0009A41D0B2CAE75B1A5A1E9341D8B2C5E708
:1013E0008642DFD900F052F822002B00121A8B41FE
:1013F000002B21DB002301931A4B2200009340466F
:101400002B00FFF755FE011E16DD144B2E005A6A05
:10141000954217D920BF4046FFF7A2FE0F4A002091
:10142000536A9E42A2D8926A0130A2429ED2EB1A1F
:101430005A1E9341D8B299E7084A536AAB4207D281
:10144000002093E79B6AA342E5D29542E3D1E1E70E
:10145000926A0120A24200D388E7E8E700400540F5
:1014600004050020CD0B001010B5024A0248FEF71B
:10147000FBFF10BDE87B00106C0900200300416AEF
:101480000A00986A596A8A42FAD17047034B596A2E
:101490000A00986A596A9142FAD1704700400540A3
:1014A000064A536A9942FCD807D1044B02E05A6AB3
:1014B000914202D19A6A8242F9D3704700400540B6
:1014C000F8B5DE464E4657464546E0B58B46050024
:1014D0000A991800160000F0DFFA0A9B6C001F0240
:1014E000324B64199C46A4006444636881469F4261
:1014F00000D967602B1FDBB29846012B30D9C0237F
:1015000080229B01E31812011A60294BAD00595942
:101510009A4600291BD17301E026226853401E40E1
:10152000802342465B01E3181E60012A30D98023E4
:1015300080229B01E31812011A6053464A466760F5
:101540005A51F0BCBB46B246A946A046F8BD586900
:1015500000F0A2FA013043001B18033BFDD2DAE78A
:101560005B46012BCBD1C02303229B01E3181A60F9
:10157000023AA3681A42FCD07301E0262268AD004B
:1015800053401E4080230A4A5B019246E3181E60C6
:101590005A462168514003220A401A6001225B46E4
:1015A0009A40A3681A42FCD0C1E7C04600800040C0
:1015B00074090020F0B546464F46D646C0B51F0018
:1015C000344B44009C462418A40064446368884655
:1015D0001600FF2B02D880235B006360031FDBB281
:1015E0009A46012B30D9C02380229B01E3181201B7
:1015F0001A60294B85005959994600291BD173015E
:10160000E026226853401E40802352465B01E318C7
:101610001E60012A30D9802380229B01E318120129
:101620001A6080235B0063604B465F51E0BCBA46A2
:10163000B146A846F0BD586900F02EFA01304300CB
:101640001B18033BFDD2DAE74346012BCBD1C02365
:1016500003229B01E3181A60023AA3681A42FCD0E5
:101660007301E0262268850053401E4080230A4A09
:101670005B019146E3181E604246216851400322F7
:101680000A401A60012342469340A2681342FCD0EC
:10169000C1E7C0460080004074090020014B800073
:1016A000C058704774090020F8B5040020481D0098
:1016B00017000E0000F0F0F90100380000F0ECF91E
:1016C000069B29041B0319432368002B1EDB194BBF
:1016D000194DE21853425A4180235B019C46120384
:1016E000164B62441A60164B1A6017002B689F4312
:1016F000FBD1144B2660E2182123A06013602368FD
:10170000002BFCDA0823E1601360F8BD3F23226858
:101710001340B342DBD1A3681B051B0D8342D6D116
:10172000EE22E368D20213408B42D0D1EDE7C046EF
:10173000001BB7000040FDBF08C0004000E00040B3
:1017400000F00040043000008023024A9B000B435D
:10175000D362704700800540142310B5010018883B
:1017600004331B88984710BD162310B50100188854
:1017700002331B88984710BDF8B54746CE4680B562
:101780000F1E19D0142399460433040000250126A6
:1017900098464B461888434621681B88984701C4E1
:1017A000431E9841013540420640AF42F1D130001E
:1017B000C0BCB946B046F8BD0126F8E7AA23064AE0
:1017C0001B0113608D235B00D3600449044B196037
:1017D0005368002BFCDA70470040024000B0FA006A
:1017E000006002407047C04610B50148FEF70EFE8B
:1017F0000C7C001070B5074D074EB54209D200248D
:10180000013E761BB60808CD984723000134B34249
:10181000F9D170BD707B0010AC7B0010054B064AFF
:1018200006491A60064A074B1A6010000B68984375
:10183000FBD1704700E00040BFCDFBFE08C0004078
:10184000FE7F3C0000F00040044BDB6C002B03D11A
:101850008022034BD2021A607047C046000011502C
:101860004C201150044A054B1A60054A1368DB01ED
:101870008033FBD17047C046FFFFFF0100F00040FE
:1018800008C000404022034B9A675A671A67DA661D
:101890007047C04600F0014010B5FEF77DFE10BD58
:1018A000F8B52749274C284D641AA4082200302C8B
:1018B00000D930222800920000F0BCFC2F2C3BD82D
:1018C00030202F21A700EB195B07204A001BDB0FFC
:1018D000091B052916D92600002B01D0EA51661CE8
:1018E000C01AE3189B004108EB18C900C9181A6018
:1018F0005A6008338B42FAD1012303421CD098432B
:101900008419A700EA51631C2F2C15D09B00EA50C4
:10191000A31C2E2C10D09B00EA50E31C2D2C0BD0C6
:101920009B00EA50231D2C2C06D09B00EA50631D1F
:101930002B2C01D09B00EA50054B9D60F8BDC046A2
:1019400000010010C001001000000020C1010010C3
:1019500000ED00E0002310B5294C82B0A367FFF72B
:101960002DFF0122274B1A60636C012BFCD103224F
:10197000254B1A60224A936B012BFCD10133009353
:101980000121224A22480433FFF78EFE052301215C
:101990000093204A2048FFF787FE002202210420FE
:1019A0001E4BFFF707FE0022012105201C4BFFF70D
:1019B00001FE0022002107201A4BFFF7FBFD002249
:1019C00000210820174BFFF7F5FD8023DB00009373
:1019D000002200210920134BFFF772FD0022104B5B
:1019E00000210620FFF7E6FD0420FFF757FE0E4911
:1019F00000F052F801000020FFF7A6FE02B010BD73
:101A0000008000403CB0004030B00040002F6859DA
:101A100000800240008C864700C00240001BB700D7
:101A200040597307006CDC0240420F00014804215A
:101A3000014B18472005002079170010014B9B68C7
:101A40001847000020050020124A936F9B0815D20A
:101A50009066D166002905D0FFE7FFE7FFE7516FE9
:101A6000106F704704B580210906C2175140002845
:101A700000D0C84306F02CF8002104BDF0B5146E68
:101A8000556E576F166FFFF7E3FF1466556657677D
:101A90001667F0BD000000D0114A936F9B0813D267
:101AA00010665166002905D0FFE7FFE7FFE7516F99
:101AB000106F704704B5002801D00020C04306F025
:101AC00007F8002104BDC046F0B5146E556E576F7F
:101AD000166FFFF7E5FF1466556657671667F0BD8A
:101AE000000000D094464A4A926F9208624601D2A2
:101AF00028E0C046F0B5464E346E756E776F366F8F
:101B000000F020F89446424A1466556657671667F7
:101B10006246F0BD94463E4A926F9208624601D2F8
:101B200054E0C046F0B53A4E346E756E776F366F3E
:101B300000F04CF89446364A1466556657671667A7
:101B40006246F0BD002B24DB11D000293EDA00B53F
:101B5000C943404200D1013100F038F8C943404246
:101B600000D10131DB43524200D1013300BD002AD4
:101B7000EBD1002801D1002905D00020C90FC907E9
:101B800001D1C043410800B505F0C2FF0022002387
:101B900000BD00B500290ADBDB43524200D101330E
:101BA00000F014F8C943404200D1013100BDC943DF
:101BB000404200D10131DB43524200D1013300F0F9
:101BC00005F8DB43524200D1013300BD002923D187
:101BD000002B18D1002A0CD0BC460D4F38667A660F
:101BE00000210023FFE7FFE7FFE77A6F386F6746C2
:101BF0007047002801D00748010000B505F088FFB4
:101C00000022002300BD02000B00002000217047CD
:101C1000000000D0FFFFFFFF002B00D0BFE0130C3F
:101C200028D1002AE7D080B4114F39667A66FFE7E1
:101C3000FFE730B4040C7B6F396F1B0423433B6612
:101C40007A66FFE7FFE7FFE7C04684B27B6F3D6F30
:101C50001B0423433B667A66FFE7FFE7C046002389
:101C60002C042D0C7A6F386F00196941B0BC704795
:101C7000000000D0F0B594460025140E01D11202E8
:101C80000835140F01D112010435940F01D19200CF
:101C90000235D40F01D152000135D40B0134254F48
:101CA0007C66254C3C660E0C93B2FFE7FFE7FFE72E
:101CB0003C6F6643360C7703BE467343DF0B5B0411
:101CC000C01AB941130C7343DB18C91ACE08664316
:101CD000360CB64493B273431F0F1B01C01AB941AF
:101CE000130C73431F0B1B05C01AB941860D8F02DD
:101CF0003E436643360C092D24DB520A7243801A98
:101D00007703460A6643360C16235B1BDE40DF4032
:101D1000BF1964466643821B7046043506330100D2
:101D2000D940A840C01900D30131A24206D20023F5
:101D3000F0BD0000000000D0FFFFFFFF121B0130CC
:101D4000F3D3F1E709277F1BFE406446A2B272433A
:101D5000801A00D20139220C7243130C1204821A29
:101D600099410B007046043513370100F940A84033
:101D7000801900D30131002B02D1A2420AD2F0BD5A
:101D8000013000D30131121BFAD2013BF8D1A2423B
:101D900000D2F0BD013000D30131121BF7E7F0B5DE
:101DA0001C0C00D080E00CB400251C0A04D11B02DE
:101DB000160E3343120208351C0B04D11B01160FFB
:101DC0003343120104359C0B04D19B00960F33431F
:101DD00092000235DC0B02D192185B4101351C00E8
:101DE000971864410134464F7C66464C3C660E0CA5
:101DF000FFE7FFE7FFE7C0463C6F6643360C77031B
:101E0000BE4697B27743C01B00D20139C01B00D237
:101E100001399FB27743C91BC91B170C77437E0456
:101E2000FF0B801BB941CE086643360C0C2D33DB0B
:101E3000B644120B1F053A431B0B97B27743C01BE6
:101E400000D201399FB27743C91B170C77433E0478
:101E50003F0C801BB941860D8F023E436643292704
:101E60007F1BFE400C3D7746AF40BF1930BCA2B28D
:101E7000ABB272437343801A9941220C7243130C24
:101E80001204801A994102000B000137001BA9417E
:101E9000F9D2781E0021F0BD0C277F1BFE4077464B
:101EA0007F0BAF40FF19E0E700245D1C07D0144F03
:101EB0007D663966FFE7FFE7FFE7FFE73C6F95B216
:101EC0009EB265436643401BB141150C1E0C654331
:101ED000664336042F0C3E432D04401BB14199420A
:101EE00004D202000B0020000021F0BD01D190427D
:101EF000F7D3801A994101349942F2D3F6E70000F2
:101F0000000000D0FFFFFFFF48404140484018B4A8
:101F1000134B5B68019308BD18B4114B1B68019308
:101F200008BD94460F4A926F920805D2624618B4D3
:101F30000B4BDB68019308BD0A4AF0B5146E556E71
:101F4000576F166F6246FFF7F2FF064A1466556632
:101F500057671667F0BD18B4014B9B68019308BD25
:101F600038070020000000D0FFB5504042405040EC
:101F700059404B40594000E0FFB5154F4C00640DEF
:101F800003D0BC4204D10C0314D80020090D09056C
:101F90005C00640D03D0BC4204D11C030AD80022AB
:101FA0001B0D1B0501264B4009D44B4003D58B422A
:101FB00000D18242FFBD9942FCD19042FFBD0B434C
:101FC000DB1803431343F5D0C9434918FFBD000094
:101FD000FF07000000B5FFF7CFFF804100BDC046FE
:101FE00000B5FFF7C1FF01D9002000BD012000BDF1
:101FF00000B5FFF7B9FF804100BD012040054A0050
:10200000121804D85A00121801D800207047012075
:10201000704700000021002805D17047C1174840D3
:10202000401AFAD0C90713B5064B1B6898470CBC79
:10203000441CA2401005120B0349091B0905194352
:10204000114310BDB01200201F04000010B54C0059
:10205000620D8023D218DB00D21A5B057E2A10DDC8
:102060009E3A13DACC170903490819435242D1406A
:10207000640001341532202A05DAD0400843604359
:1020800010BD002010BD0846604310BDC80FC01829
:10209000013810BD18B4024B5B6A019308BD000003
:1020A0003807002010B50148FEF7B0F9187C001081
:1020B000132370B51D78012D19D014DD1D48FFF7CD
:1020C00053FB06001C48FFF74FFB1C4C80223100DD
:1020D000200000F0AFF8022D06D01948FFF73CFBB6
:1020E000184B186070BD154C174BA364F5E7174BE0
:1020F000124C23606360A360E36023616361A361AA
:10210000E36123626362A362E36223636363A363A5
:10211000E36323646364A364E36423656365A36585
:10212000E36523666366A366E36623676367A36765
:10213000E367D9E753440000534600003807002006
:102140004C330000B012002051210010A5200010D7
:1021500007B5604601880A0A0230DF2AFAD1C9B2FF
:10216000820804D3028840880004104300E000681D
:10217000014A5050039007BD3807002051434343A4
:10218000C9188C46110C83B24B4310B4040C614344
:1021900092B280B2504362431C041B0C001910BC65
:1021A00059411304120CC01851416144704700009A
:1021B00010B50148FEF72AF9747F0010132310B5FB
:1021C00010481C78FFF7D0FA0100012C0AD003DD7B
:1021D00080220D4800F02EF80C48FFF7BDFA0C4B9A
:1021E000186010BD084C5422200000F023F8220093
:1021F000084980322368002B00D1216004349442C6
:10220000F8D1E9E753460000B41200204C33000037
:10221000B0120020B121001001480421014B1847E1
:102220003005002079170010014B1B68184700008B
:1022300030050020014B5B68184700003005002086
:102240007047C046F8B557464546DE464E46E0B5AF
:1022500098460A9B06009A460D9B0F009346150070
:102260009B0710D10B9B0C9A93420CD213005C4637
:102270000B9A9D1A5D442200434601343900202008
:10228000B047A542F7D10B9C6319002C09D01D0063
:1022900053462A1B013C185D39004346B047002CC9
:1022A000F6D10D9B9B070ED55B46EC1A0C9BA34207
:1022B00009D999462A004346390020200134B04705
:1022C0000135A145F6D82800F0BCBB46B246A94668
:1022D000A046F8BDF0B54F464646D646C0B584B0D8
:1022E00098460EAB1B7894469946129B0D9C109F06
:1022F000119E9A0724D4002E6AD1BC4220D201221A
:102300001A409246202C00D1CBE00C9A551E302268
:1023100001E0202C30D001342A55A742F9D852468A
:10232000002A0DD0B4420BD20C9A551E3022202C1C
:1023300002D126E0202C61D001342A55B442F9D1D3
:10234000DA0634D55A0562D4002C5CD10F9A102AD3
:1023500000D191E0022A00D1A1E030220C9C227031
:1023600001244A46002A5CD15A0700D47DE02B2282
:102370000C9D2A5501341CE05246002A02D0202E22
:102380003CD92024DA0614D55A0512D4202F00D1C6
:1023900097E0202E3BD120261F2234000F9D102DC8
:1023A00000D181E0022D4CD030250C9FBD54202C53
:1023B000D7D103930C9B6246009302964346019447
:1023C000FFF740FF04B0E0BCBA46B146A846F0BDF6
:1023D000012215001D40AA461A4227D04A46002A6B
:1023E00033D10C321A4230D1BC429BD2202C00D0C7
:1023F0008BE7202EC5D8DA06A4D4DAE72024DA0643
:10240000D7D55A0503D4A74221D0B4421FD00F9A82
:10241000102A21D0022A10D0202CCAD02200013448
:10242000C2E72D220C9D2A550134C2E7BC4200D3DD
:1024300086E7202C00D068E7E1E7202CB9D0220005
:10244000013462250C9FBD54E6E7013ECCE7621ED5
:10245000012C00D17AE7A1E79A0616D4202CA8D047
:1024600078220C9D2A550134D6E71A07A1D52022DF
:102470000C9D2A5501349CE79A060ED478220C9CB8
:1024800022703022627002246BE7202C91D05825F4
:102490000C9A121915700134BEE75822EFE7622238
:1024A000EDE7002AA7D1AAE7023C9D0604D47825CF
:1024B0000C9F3D551400B1E758250C9F3D55140065
:1024C000ACE71F226AE7C04610B5002800D110BD56
:1024D00001F000FBFBE7C0460B0010B5002802D05E
:1024E00049681B68984710BDF0B557464E464546AB
:1024F000DE46E0B599B08246894690460993229A15
:10250000239B10001900FFF778FD002800D0C8E0D9
:10251000229823990122D54B5242FFF769FD0028EA
:1025200000D0BEE0229823990122D14B5242FFF7FE
:1025300051FD002800D0B4E0229823990022002306
:10254000FFF748FD002800D0E9E1229E239F802369
:10255000269ADB001A400D92269A1A4201D10623D0
:1025600024933B00334300D0B4E0269B1B0500D5E9
:10257000BFE1002300240A930B94002304250C934D
:10258000259B0024AB4200D95C1B0223269A1A40EB
:102590000D92269A134203D06B426B415B421C4062
:1025A0000C9B002B07D00A9A0B9B30003900FFF7D9
:1025B000B8FC06000F002298239900220023FFF7A1
:1025C00009FD002803D0802109067B181F00269AE8
:1025D000A84B009601971340099E0493249B0394F3
:1025E0000293424633004946504600F0A7F90400E2
:1025F000002D67D02020269A4946024013005A42F7
:1026000053415B42621C18400A923300220045305D
:10261000D0470C9A6F1ED317D4185C40D30F9B463B
:10262000002501E0202D13D008AA94461F23200086
:1026300063440A2101355E19FFF72EFA30313170FB
:1026400020000A21FFF728FA26000400092EE9D805
:1026500005230693002304930A3303935B46099EE4
:10266000029310AB0A9A00934946330050460597EF
:102670000195FFF72FFE0D9A0400002A22D0424652
:10268000851A259AAA421DD9B0465746160022003F
:102690004346494620200135B8470134AE42F6D8BA
:1026A00010E0269B42460493259B49460393249BB6
:1026B00050460293229B239C00930194099B00F0B7
:1026C0003DF90400200019B0F0BCBB46B246A94653
:1026D000A046F0BD684B78009C46400D6044FFF773
:1026E0009DFC664A664BFFF736FC664A664BFFF771
:1026F00013FC664A3B031B0B1A4304000D00644B9A
:10270000110030000022FFF702FC624A624BFFF723
:1027100022FC02000B0020002900FFF7FDFBFFF761
:1027200095FC0C90FFF77AFC5C4A5D4B04000D00B1
:10273000FFF711FC00225B4BFFF7EEFBFFF786FC77
:10274000594A8346594B20002900FFF704FC040036
:1027500058460D00FFF762FC554A564BFFF7FBFB4E
:1027600002000B0020002900FFF7D1FB02000B0044
:102770000A900B91FFF7EFFB04000D000A980B99EC
:1027800002000B00FFF7C8FB00220E900F914A4B8E
:1027900020002900FFF7C5FB0022484BFFF7BCFBD8
:1027A00002000B0020002900FFF7BBFB0022444B76
:1027B000FFF7B2FB02000B0020002900FFF7B1FB7E
:1027C0000A9A0B9B0D0080210400C9050020FFF729
:1027D0009EFB02000B0020002900FFF79DFB394CF7
:1027E00002000B000E980F99FFF79BFB5C44002240
:1027F000264BFFF791FB23050022FFF7ACFB0400FB
:102800000D0002000B00300039000A940B95FFF711
:10281000E1FB00285ED123002A00C6250C99633114
:102820008D42AD4126996D420435090500D4A7E6D5
:10283000134364D030003900234A244BFFF7D0FB08
:10284000002807D0002230003900214BFFF7C2FBDF
:10285000002854D1249B002B00D191E60D9B5A1ED9
:102860009341249AD31A24938AE6C046FFFFEF7F50
:10287000FFFFEFFFFFF7FFFF01FCFFFFFB799F501A
:102880001344D33FB3C8608B288AC63F0000F03F93
:102890000000F83F61436F63A787D23F71A37909B6
:1028A0004F930A400000E03F1655B5BBB16B0240A4
:1028B000EF39FAFE422EE63F00002C400000244093
:1028C00000001840FF0300002D431CEBE2361A3FC6
:1028D00080842E410C9B0022013B0C932000164B60
:1028E0002900FFF71EFB0A00010003000A910B926A
:1028F00093E7002300240A930B9400230C93249A5B
:102900000C9B9A4214DDD31A013B24938023269A10
:10291000DB001A430023002526920C9330E6802228
:1029200012069446229B1E00239B63441F000EE662
:1029300000232493EAE7C04600002440F0B5454652
:10294000DE464E465746E0B595B08B4690469946D2
:102950001E9A1F9B0A9019001000209DFFF74DFB47
:10296000002800D0B0E11E981F990122C74B5242A7
:10297000FFF730FB002800D037E11E981F99012295
:10298000C34B5242FFF734FB002800D0A7E01E984B
:102990001F990022BF4BFFF72BFB002800D088E0D7
:1029A0001E981F990022BC4BFFF714FB002800D093
:1029B0007FE01E981F9900220023FFF70BFB0028E1
:1029C00000D0FAE000230B938023229C229ADB00A4
:1029D0001C401A4200D102E1092D00D87EE106A96F
:1029E0008C462C00172200233021093C624401331D
:1029F000D154EF1A202B00D132E1A342F7D10022AB
:102A0000A44B069207931E981F99FFF71FFB050022
:102A1000FFF704FB02000B001E981F99FFF777FADF
:102A2000069A079BFFF797FA08900991FFF732FB88
:102A30000600FFF7EFFA02000B0008980999FFF76C
:102A400066FA0022954B08900991FFF7D1FA002809
:102A500000D1D2E001363000FFF7DCFA069A079B7E
:102A6000FFF7BEFA002801D000260135AA46002F44
:102A700000D098E02800FFF7D1FA02000B001E9862
:102A80001F99FFF744FA854B002206000F00FFF75D
:102A9000A1FA0CAB9A46002845D10022300039003B
:102AA0007E4BFFF7A5FA00283DD1EB073BD501355A
:102AB00039E0229B42460493219B594603930A988E
:102AC0001E9B1F9C0295009301944B46FFF70CFD43
:102AD00015B0F0BCBB46B246A946A046F0BD229B4D
:102AE0005B0767D403226E4B2299019203912199CF
:102AF0000291009342464B4659460A98FFF7A2FBC3
:102B0000E6E706AA94461723280063440A21013405
:102B10001E19FEF799FF3031280031700A21FEF7A7
:102B200093FF051E76D0202CEBD10323229A13406D
:102B3000012B1DD1219B002B1AD00B9B002B00D009
:102B4000BBE0229A0C33134200D0B6E0219BA34293
:102B500000D887E006AB9C4617223023624404E08D
:102B60002199013413558C4259D0202CF8D12024BE
:102B7000229B01940393219B02935346B9E706AA33
:102B8000944617230A216344300001341D19FEF7CF
:102B900083FF3031297030000A21013FFEF77CFFAE
:102BA000092E46D90600202CE9D155460CAB20242D
:102BB0009A46B8E704223B4B96E71E9A1F9B0020DB
:102BC0000021FFF7A4F901230B938023229C229A72
:102BD000DB001E901F911C401A4200D0FCE6002230
:102BE000314B0627069207930DE7229B0393219B07
:102BF0000293042301932D4B7BE700220898099947
:102C0000264BFFF7E7F9002800D02FE7002E4FD121
:102C100001362BE70323229A1340012B68D0202C86
:102C2000A6D00B9B002B1FD02D23524613550134E9
:102C30009EE75546202CB9D030223B19002F4BD0AF
:102C4000172006A9013409180A55202CAED09C4241
:102C5000F6D10CAA92462E2251465C1CCA5462E759
:102C60002024CCE6202C83D0229B5B0708D4229B17
:102C70001B0700D47CE7202352461355013477E725
:102C80002B2352461355013472E7C046FFFFEFFF76
:102C9000FFFFEF7F65CDCD4165CDCDC10000E03FA9
:102CA000C87C0010C07C001080842E41D07C0010B5
:102CB000F30700D4DAE60136D8E6219B013B2193E5
:102CC000A34200D946E7AAE7229B0393219B0293E4
:102CD00003230193084B0CE72300BAE7074BEA00F4
:102CE0009B185C681B682F000693079400248AE6F3
:102CF000219B002B93D020E7CC7C0010787E001025
:102D0000F0B5DE4657464E464546E0B59FB01C003E
:102D1000289B93460A93CC4ACC4B8A4609901A606A
:102D2000002900D14DE1002320789946002800D1E8
:102D30004FE1C74B4D460893C64B0D930AE02A005E
:102D40006E1C5B46099D5146A8473500013420782A
:102D5000002872D02528F2D110239946083B9846C6
:102D6000043B00219C460227013420782600030002
:102D7000203BDBB2102B03D8089A9B00D3589F4608
:102D80000300303B092B6ED900272A2800D18AE0A6
:102D900000230B932E2800D176E00300683BDBB2C2
:102DA000122B1BD8AC4C9B00E3589F4601230134E7
:102DB0001943DAE739430134D7E76346013419434D
:102DC000D3E74B4601341943CFE743460134194357
:102DD000CBE780235B0070781943013667280AD857
:102DE00024281FD90300253BDBB2422B1AD80D9AA9
:102DF0009B00D3589F460300693BDBB20F2B11D8D1
:102E000001249C40954AA446904614400C94624686
:102E10004446224200D025E20A2B00D101E1072BD3
:102E200000D1D8E0099C2A005B465146A047707843
:102E30006F1C741C3D0000288CD1A9462C00CB458A
:102E400003D801235B425B4499465B464A465146A0
:102E50000020099DA84720001FB0F0BCBB46B24629
:102E6000A946A046F0BD0027BB00DF1901367F0050
:102E70003F183078303F0300303B092BF4D9002352
:102E80000B932E2800D088E780237078DB0019434D
:102E90000300303B741C092B00D82CE12A2800D1F8
:102EA00038E1260079E70A9B80CB002F03DB6078AE
:102EB0000A93661C6CE70222607811437F420A93F2
:102EC000661C65E7672800D1C8E1472800D104E205
:102ED000452800D104E207200A9B0491073383436D
:102EE00019000B9A039702920CC90998009201935A
:102EF0000A912A005B465146FFF7F6FA741C05005A
:102F000025E770786C2800D10DE280235B0019431F
:102F1000013663E780239B007078194301365DE733
:102F20007078682800D1F9E180230136194355E70C
:102F3000462800D18FE107200A9B04910733834381
:102F400019000B9A039702920CC9099800920193F9
:102F50000A912A005B465146FFF7F0FC741C0500FD
:102F6000F5E62A00099C5B46514625206F1CA047C8
:102F70003D00741CEBE6890700D4DEE10A9B2A00C1
:102F800098466B1C9946434601CB51469846099C8E
:102F90005B46C0B2A047ED19012F00D893E24C4622
:102FA000B1465646099F22005B460134310020207D
:102FB000B847AC42F7D1B24643464E460A93741C1A
:102FC000C5E6274B2078099300239946002800D0B6
:102FD000AFE6002433E70A9B1A0008CA9046002B8C
:102FE00000D1A7E0212008430EA98C461F2262448D
:102FF0000F27AC46814615000C9C02E0202C0CD01B
:1030000013003800184001003731092800D807396B
:10301000013429551A090F2BF0D8654648460C94FF
:1030200094E00A9B1A0008CA12920B9A002A7BD1DC
:1030300002241A786442002A1DD0013418199C46D3
:103040001C00030010E0C046012D00108C1200206F
:10305000D87C0010687D00101C7D0010419000009D
:10306000412200109C4203D0607801340028F9D13D
:103070006346E01A0C908020C000844608408046D9
:103080006046014204D00B980C9C844200D90C90FD
:103090000220844608400A906046084200D189E137
:1030A000101E00D170E14246002A00D11BE10B9AAC
:1030B0005B1B9046A84444462A00B84699465746AA
:1030C000B246099E09E05B463900551CB0474B46A5
:1030D000585D002800D12CE12A009442F3D15646D5
:1030E0002500BA4647460A9B002B00D04CE1129BB4
:1030F000741C0A932BE6002293009B185B0001349A
:103100001A182078303A0300303B092BF4D92600F6
:103110000B9242E60A9B023604CBD043C017024012
:103120000B9230780A9338E61A78002AA3D00B98CD
:10313000441E82E710230800802798431133184368
:103140000B00FF003B40394200D14DE708230593B7
:103150000B9B2A00049310230393002302930C9BE0
:103160000690019316AB009351465B460998FFF712
:10317000B1F843460500741C0A93E8E5622800D1C3
:10318000A6E1582800D1B1E180230A00DB001A40F3
:103190009046194200D189E1112399438C4680233E
:1031A00062469B001A40100062461A4200D023E19A
:1031B000802364465B001C401A4200D032E2634622
:1031C0005B0600D56BE163460A991B0600D4DBE27F
:1031D00008C91BB2DA179818504080B20A91DA0F6A
:1031E0000C92002B00D118E280460EAA91461F23B4
:1031F0004B441395E14645461297B0461E0001E048
:10320000202C0FD028000A21FEF746FC0134371984
:103210003031397028000A21FEF73EFC2F000500EE
:10322000092FEDD84646CC46129F139D6346069360
:103230000B9B059704930A2303930C9B029316ABF5
:103240002A000194009351465B460998FFF742F823
:10325000741C05007BE5202319436CE680231B01C9
:10326000194338E6782800D07CE180230A00DB008F
:103270001A409146194200D1A5E20D239943080056
:1032800003330C93802302009B001A40904618429F
:1032900000D078E1802304005B001C40184200D07D
:1032A00007E2430600D453E2FF210A9B04CB0A4005
:1032B00090460A934346002B00D026E110339843F2
:1032C0004B46002B00D120E100240B9B0690049379
:1032D0000C9B059703930023B0E780231B01194340
:1032E00020231943F7E55B1B99460C9B099C9846E4
:1032F0005B46B3465646BA461F002A003B003100E3
:10330000A0474B460135585D0028F6D143460C9343
:103310003B005746B2465E469B46E4E6C023B07883
:10332000194302365AE5C0239B00B0781943023690
:1033300054E55646BA464746D5E6012F00D832E254
:103340006B1E9846B8442C00A9464546B8465746D9
:10335000B246099E22005B46013439002020B04766
:10336000AC42F7D10A9B564601CBBA46474698462F
:1033700022005B46099C5146C0B2A0474D464346D9
:10338000ED190A93741CE2E40C9BA8469F4200D8F6
:10339000ADE64446B04656467D19099FED1A220017
:1033A0005B46013431002020B847AC42F7D1B24629
:1033B00046469CE60C98874200D8F0E14246984683
:1033C0007919B9465746B246099E0C1A0C922A0042
:1033D0005B46013539002020B047A542F7D156465B
:1033E000BA464F4643460C9A90467A1C0C921A787D
:1033F000101E00D057E67AE60822072191460A9B64
:1034000007338B4399444A460ACB0C000A921C436B
:10341000DA0F002C4ED0D817040010904C401190B9
:103420000E94109811990C005C400F940E9B0F9C09
:103430001B1A8C410E930F940EA988461F2300245B
:1034400043441297B046270013951E000E9C0F9D13
:10345000E1460C9201E0202F10D0200029000A2222
:103460000023FEF757FB013730322B00F2550D00D9
:1034700022000400002BEED1092AECD84646CC46A7
:103480000E940F950C9A3C00139D129F6346069371
:103490000B9B059704930A2302920393CFE6FF2325
:1034A0000A9904C9134018000A9198E61023994319
:1034B0008C4674E643460024002BE7D10023002409
:1034C0000E930F94B8E743464D460A93741C3EE4AE
:1034D00080230A00DB001A409146194200D140E1E6
:1034E0000D2399430B3B08000C93CBE680230A0085
:1034F000DB001A409146194200D162E10D232020E1
:103500009943033308430C93BCE66123810600D53D
:1035100041230EA91F228C46DBB262440A3B13975B
:103520001495814645460C9FB0461293160008E05C
:103530003033DBB201343355BD420ED3202C0CD0D6
:10354000050039002800FEF7A7FACBB20929EFD908
:10355000129A94466344DBB2ECE746464846139F12
:10356000149DB2E66F2800D03CE10C23080098437C
:1035700080230A00DB001A409146194200D02AE15C
:1035800008230C937EE60A99FA3BFF3B07319943E7
:1035900001339C468C4463464A680A930B68904604
:1035A0009C461343191E06D14B4610310024884314
:1035B000002B00D089E66121830600D541210EAAA7
:1035C00091461F234B449946C9B20C9B0A39139765
:1035D0001495159645464E46002467469846814602
:1035E00012910CE03032D2B2002301343255AB429A
:1035F00000D1BCE0202C00D1BCE007000D00424609
:10360000002338002900FEF785FAD2B2092AE9D949
:10361000129B9C466244D2B2E6E74346002B00D0A0
:1036200004E6E2E50A9C08CCDA0F1392002B00D1E5
:10363000A5E0D9175B184B4098460EAA91461F2368
:103640004B440C95A14645461296E04606001C00E8
:103650000A9701E0202E0FD028000A21FEF71CFA5D
:103660000136A7193031397028000A21FEF714FA03
:103670002F000500092FEDD8C4464C4630000A9FA4
:103680000C9D129E634606930B9B2A0004930A230B
:103690000393139B0190029316AB009351465B4634
:1036A00009980597FEF716FE0A940500741CFFF7AB
:1036B0004EFB0A9B10CB1493002C04D1102398438B
:1036C0004B46002B2CD16123810600D541230EA946
:1036D0001F228C46DBB262440A3B12971395814647
:1036E00045460C9FB0460A93160008E03033DBB223
:1036F00001357355BC420ED3202D0CD00400390087
:103700002000FEF7C9F9CBB20929EFD90A9A9446ED
:103710006344DBB2ECE748464646129FA846139D39
:103720000B9B2A0004930C9B0690039300230293A7
:103730004346019316AB009351465B4609980597A3
:10374000FEF7C8FD149B05000A93741CFFF7FFFAEF
:1037500003061FD50A9B02CB09040A0C90460A9364
:10376000A8E50C2399430A3B08000C938AE5B84569
:1037700000D83FE74846139F149D159EA5E5434694
:10378000002B00D07EE758E708C9DA179818504098
:103790000A9124E50A9B04CB90460A938AE501002E
:1037A00001310C9124E60A9F6C1C01CF2A005B4674
:1037B000099D5146C0B2A84725000A97741CFFF71F
:1037C000C6FA202319430C2399430023994610334A
:1037D00008000C9356E508238C460C930D23604695
:1037E00098434FE510230A009A439446692808D16C
:1037F00080230A00DB001A409046194200D1CEE433
:10380000CAE41C230800984380230A00DB001A4006
:103810009146194202D10A230C9333E50A230C93F3
:10382000DCE7C04600B585B003910121029000930A
:10383000034813004A4202A9FFF762FA05B000BD2F
:10384000D924001010B5094A0300146884B0002C74
:1038500008D0012200910648524203A9A047012046
:1038600004B010BD00F082F90020F9E78C120020AE
:10387000C924001000BEFDE77047C04610B5FFF731
:10388000F9FFC04670B5FDF7B5FF074D074EB542CD
:1038900009D20024013E761BB60808CD98472300C4
:1038A0000134B342F9D170BDAC7B0010B07B001085
:1038B000030010B5080011001B68984710BDC046F2
:1038C000F0B546464F46D646C0B5437D80460E000D
:1038D0001700002B4BD0002A32DD274B01259A46DA
:1038E0004B1E00240020994607E0335D0A2B2CD0A4
:1038F0002B0001340135BB4213DA002CF5D13378AB
:103900000A2BF5D143461B7D002BF1D1434650468F
:1039100002211B68984728002B0001340135BB4267
:10392000EBDB874204DD4346391A1B6830189847A1
:10393000F619013E33780D3B5A4253414246137506
:10394000E0BCBA46B146A846F0BD4B461B5D0D2B08
:10395000CED0A042DADA4346211A1B6830189847C5
:103960004346504602211B6898472800D4E7036865
:10397000110030009847E3E7C87E0010F8B50B68E7
:103980000D005A1CCB180A601871802A00D0F8BDAF
:103990000E4B1C68002C15D00D4E0F1D02E0246943
:1039A000002C0FD02368002BF9D03368002B01D0F6
:1039B000A342F4D1200039002A68FFF781FF24696F
:1039C000002CEFD100232B60E1E7C04684120020D9
:1039D00088120020F0B5DE4657464E464546E0B513
:1039E00085B017001C0006000D00FDF74FFD0023F9
:1039F000314A12184B41802109068B4202D3012221
:103A00002E4B52422E4908008A4604F091F801904C
:103A10006B1C03D1300003F0F9FF0500002C26D009
:103A2000284B9846284B1C68002C15D0002F21D11C
:103A3000264F02E02469002C0ED02368002BF9D019
:103A40003B68002B01D0A342F4D120002A003100B2
:103A5000C0472469002CF0D1019B002B28D12800FD
:103A600005B0F0BCBB46B246A946A046F0BD184B17
:103A70009846D7E7154B994602ABDF1D0A239B46B4
:103A800002E02469002CE7D02368002BF9D04B46D4
:103A90001B68002B01D0A342F3D12A003100200083
:103AA000C0475B460122390020003B70C047E8E771
:103AB000504604F055F8D2E740420F00FFFFFF7F69
:103AC00068050020C13800108412002088120020F0
:103AD000B1380010F0B5CE46474680B583B06B468E
:103AE0000600DD1D2870FDF7D1FC00231A4A1218CC
:103AF0004B41802109068B4202D30122174B5242CF
:103B000017490800884604F013F8164B81461C68D4
:103B1000002C14D0144F02E02469002C0FD023682D
:103B2000002BF9D03B68002B01D0A342F4D1200038
:103B300001222900FFF7C4FE2469002CEFD14B4677
:103B4000002B05D1300003B0C0BCB946B046F0BD73
:103B5000404604F005F8F5E740420F00FFFFFF7F05
:103B600068050020841200208812002070B504002F
:103B700003F04CFF01230100050001222000FFF7A4
:103B800029FF084B1C68002C06D06368002B05D069
:103B900098472469002CF8D1280070BD2469002CB6
:103BA000F3D1F9E784120020F0B5CE46474680B540
:103BB000A3B004000D00FDF769FC0023294A121888
:103BC0004B41802109068B4202D30122264B5242EF
:103BD000264F380003F0ACFF0023060001932200BB
:103BE0002B00234801A9FFF71DFE019B8046002BF7
:103BF00014D1204B1C68002C06D06368002B0BD01E
:103C000098472469002CF8D1002E25D1404623B0D6
:103C1000C0BCB946B046F0BD2469ECE7154B1D6841
:103C20009946002D1CD0144C02E02D69002D0FD0B8
:103C30002B68002BF9D02368002B01D0AB42F4D1C4
:103C40002800019A02A9FFF73BFE2D69002DEFD154
:103C50004B4601951C68CEE7380003F081FFD5E79D
:103C60000195D1E740420F00FFFFFF7F680500206C
:103C70007D39001084120020881200200FB400B596
:103C800083B004A901C90191FFF78EFF03B008BCFE
:103C900004B01847014B18607047C0464008002028
:103CA00010B5034B0A000100180003F01BF810BD0B
:103CB000A8090020014B18687047C0464008002042
:103CC00010B582B0FFF7F6FF002807D003F0D0FA56
:103CD00003000020002B10D002B010BD684603F096
:103CE00027FD0F4C6946200003F028FD002813D063
:103CF0002000FFF7CFFF2000E8E7FFF7DBFF04001D
:103D000003F0D2FA064B9C4206D1236820005B6B7D
:103D100098470020FFF7BEFF01204042DCE7C04685
:103D20007005002010B5024800F00CF810BDC04628
:103D3000A812002010B508220149FEF77BFA10BD39
:103D4000A812002030B5002589B004000922002106
:103D500001A80095FEF768FA0922002105A804953C
:103D6000FEF762FA6A464B236846137004A90023E3
:103D70000D2203F0B5FE1521082220006944FEF74C
:103D800059FA09B030BDC04610B50520FDF786FCD4
:103D9000030C642003495843FDF77EFE0338FDD22F
:103DA00010BDC0469A3B0000184B70B5C4580500C2
:103DB000002C14D02168002906D06368A26814483A
:103DC00003F050F9002323600C202056002810DA5D
:103DD0000D202056002803DA00220C4BEA5070BD5B
:103DE00003F07CF90D20205603F05CF9FF23637388
:103DF000F2E703F073F90C20205603F053F9FF2388
:103E00000D20237320560028E6DBE9E74C0800006C
:103E1000E87E0010F0B5C6463F4C404B00B5C4509C
:103E2000002306212200012684B02360013BA381E8
:103E3000019112310500009139482100231D0832FB
:103E4000029603F001F9002860D0636835495F1DD0
:103E50003F03DB011F43344B0A681F403023934369
:103E6000324A206813600B68310099431160802248
:103E7000002352040092019302F0DAFFA168206847
:103E80004B005B18DB00C318B8461A008027C83205
:103E9000BF021760C027BF02976047460432176011
:103EA000234ADC331A601D220123009602F0CCFF66
:103EB000204B21689C466144090D06311820C9B287
:103EC000FCF7F8F9012200211820FCF70DFA012176
:103ED0001820FCF71DFAA16823684A005218D20086
:103EE0009B18154AD8331A60002003F0E5F82073B8
:103EF000002003F0E1F8237B40B260731843000612
:103F000004D4002004B080BCB846F0BD2800FFF700
:103F10004BFF06204042F5E75C0900204C080000FA
:103F2000E87E001078C00140FFFFFF9F78D001407D
:103F300018771C240000E0AF01E00000F0B54E4609
:103F40004546DE465746E0B589461600984689B094
:103F5000002900D124E1964BC458964B21689C4619
:103F60006144090D06311820C9B2FCF7A3F9914B41
:103F700021689C466144090D06311D20C9B2FCF739
:103F800099F9012200211D20FCF7AEF9D0238022EF
:103F90001B0692049A614346002B00D122E14B4656
:103FA000002B00D1FAE001252A00A16820688A4090
:103FB00003689343036063689C464B005B18DB0017
:103FC000C718CC3703933B689A4663465A1D7A4B11
:103FD00012039B46049253465A461340049A1A43CE
:103FE0006346DB011A433A60744A039B944680227D
:103FF000C318634412061A601A6080220023520418
:104000000092019302F0BEFE2900A36827681A1DE2
:104010009140944680229201BA181160190028003C
:104020000831884099001060F2007918013A0A615D
:104030005A00D218D2006248BA18D83210601298CA
:10404000801BC000013808611F205E491160616853
:1040500001401160A0210C22C9058A46A256504693
:1040600095405949455091010800802583460791A4
:1040700056496D04594408682842FCD10D20012599
:10408000205651498540039050464550A021C9050E
:104090008A464E4903988B4685018021AA445D4497
:1040A0009B462B0049041D680D42FCD15B464149EB
:1040B00003907D182D0DED005919C9038B46584604
:1040C0004349D2020A400243424806950100A0201B
:1040D0001143C005624683464846079D92005D44F1
:1040E000049228600498B9468346D944484605910D
:1040F0002900B2086860AA60059DCD600399069DFD
:10410000C8023349654408401299ED038908054304
:104110008A1A314859462843554610317918296082
:10412000414689196960AA6001229A401300E8603B
:1041300039680B433B600C22284B80219C46A256D9
:1041400049049201624413680B42FCD10D22234BB7
:1041500080219C46A25649049201624413680B4296
:10416000FCD1002132004046FEF75EF8A1682368CA
:104170004A005218D2009B18194AD8331A60D0232B
:1041800080221B0692045A61FFF7FEFD002009B051
:10419000F0BCBB46B246A946A046F0BDC14602E708
:1041A0004346002B00D0D6E605204042EFE7C0464C
:1041B0004C0800000000E0AF7F00FEFFD0100000C0
:1041C0002060000040600000440400000C0000502B
:1041D000FD7F00FF19004000290040001000005042
:1041E00003A000004B46002BC0D001273A00A16875
:1041F00020688A4003689343036063689C464B00D1
:104200005B18DB00C518CC3503932B689A466346D0
:104210005A1C484B12039B46049253465A4613407D
:10422000049A1A436346DB011A432A60424A039BFD
:1042300094468022C318634412061A601A608022D2
:10424000002352040092019302F09CFD3A00A06802
:104250002168031D9A409A4680239B01CB181A605F
:1042600002003D000832954082001D60F3008A186C
:10427000013B136143001B18DB00304DCB18D833D2
:104280001D60454615611F252D4A1A6062682A4047
:104290001A600C23E356A0229F409C46294BD2056E
:1042A000D75063469B019B4617008025264A5F44F2
:1042B0005A446D0413682B42FCD16246D2029446E4
:1042C000224A234B904662464546CB181B0DDB0025
:1042D0001B182A40DB0313431E4AB60813434A4601
:1042E0003A60524695004D197D60BE60FB60012327
:1042F00083400D68184A2B430B6080215A444904BF
:1043000013680B42FCD10122A368216818339A403C
:104310008A608B681A42FCD00122A16820688A401A
:10432000036893430360002318220093013302F0D3
:104330008BFD1BE77F00FEFFD01000002060000017
:1043400040600000440400000C000050FD7F00FFAE
:104350000000E0AF190040001000005010B5172019
:10436000FCF734F8D024802324061B04002201210A
:1043700063621720FBF7B8FF1820FCF727F88023AB
:104380005B0463621920A361FCF720F880239B047F
:104390006362636110BDC04670B5D02480252406D9
:1043A0002D04A561142003F001F86561FA2002F0E4
:1043B000FDFF1820FCF70AF880235B04A36270BDA0
:1043C000002300B585B003930A4BD2021A4008239C
:1043D00009071143084A00930A4302AB52BA00216D
:1043E00002920422FFF7AAFD002801D1039840BAE7
:1043F00005B000BD00F8FF0F0400004010B54C1ED2
:1044000063425C41104BD2021A4009070F4B0A432A
:1044100088B013432401029323000833009304223D
:10442000002102ABFFF78AFD00280AD163425C41FC
:10443000032364429C4308226B460534A4009B1866
:10444000185908B010BDC04600F8FF0F0400004026
:1044500010B54C1E63425C41104BD2021A40090752
:104460000F4B0A4388B013432401029323000833FF
:1044700000930422002102ABFFF760FD00280AD15F
:1044800063425C41032364429C4308226B4605342B
:10449000A4009B18185908B010BDC04600F8FF0FC3
:1044A0000200004010B54C1E63425C41104BD2022A
:1044B0001A4009070F4B0A4388B0134324010293A3
:1044C0002300083300930422002102ABFFF736FDDE
:1044D00000280AD163425C41032364429C430822C2
:1044E0006B460534A4009B18185908B010BDC0468F
:1044F00000F8FF0F01000040F0B55BBADE465746FA
:104500004E464546E0B5734CD2022240090711439E
:10451000714A85B00A430393704B02A9C458704B8B
:104520008A4652BA9C46216818206144090D06311A
:10453000C9B20292FBF7BEFE694B21689C466144FA
:10454000090D06311D20C9B2FBF7B4FE012200217E
:104550001D20FBF7C9FED023802201271B069204F1
:104560009A613A00A16820688A40036865689343AD
:1045700003604B005B18DB00C618CC3632689C46E3
:1045800090466A1C1303574A9B46914642464B4647
:104590001A4013005A46ED011A432A433260524A28
:1045A000634694468022C318634412061A601A6058
:1045B0008022002352040092019302F0E3FB3A00B0
:1045C000A0682168031D9A40994680239B01CB185F
:1045D0001A6002003D00083295401D603F238200B2
:1045E0008A18136143001B18DB00404DCB18D833E9
:1045F0001D60002515613E4A1F351A6062688026DD
:104600002A401A600C23E356A0229F409C46394B57
:10461000D205D75063469A01A023DB05D718364B45
:104620007604D5182B683342FCD16546ED02AC46C2
:10463000324D2B4BA84665464646CB181B0DDB007A
:104640001B183540DB032B432D4D2B4355463D6056
:104650004D46AE0002258E197E60BD60FB600123D1
:1046600083400D682B430B60264B80219C464904F8
:10467000624413680B42FCD10122A36821681833FD
:104680009A408A608B681342FCD00122A16820689E
:104690008A40036893430360002318220093013388
:1046A00002F0D2FBA16823684A005218D2009B187E
:1046B000154AD8331A60D02380221B0692045A610F
:1046C000FFF762FB002005B0F0BCBB46B246A9462E
:1046D000A046F0BD00F8FF0F040000C04C08000029
:1046E0000000E0AF7F00FEFFD0100000206000005F
:1046F00040600000440400000C000050FD7F00FFFB
:10470000190040001000005003A00000F0B5DE4684
:1047100057464E464546E0B585B002ACA246724CBF
:10472000D202224009070A43704901270A43029234
:10473000524653606E4BC4586E4B21689C46614490
:10474000090D06311820C9B2FBF7B4FD694B216889
:104750009C466144090D06311D20C9B2FBF7AAFD34
:10476000012200211D20FBF7BFFDD02380221B0664
:1047700092049A613A00A16820688A4003686568DB
:10478000934303604B005B18DB00C618CC363268DD
:104790009C4690466A1C1303574A9B4691464246E4
:1047A0004B461A4013005A46ED011A432A43326021
:1047B000524A634694468022C318634412061A6024
:1047C0001A608022002352040092019302F0DAFA68
:1047D0003A00A0682168031D9A40994680239B01F6
:1047E000CB181A6002003D00083295401D603F233F
:1047F00082008A18136143001B18DB00404DCB1860
:10480000D8331D60002515613E4A1F351A60626865
:1048100080262A401A600C23E356A0229F409C4623
:10482000394BD205D75063469A01A023DB05D71830
:10483000364B7604D5182B683342FCD16546ED0221
:10484000AC46334D2B4BA84665464646CB181B0D50
:10485000DB001B183540DB032B432E4D2B43554605
:104860003D604D46AE0002258E197E60BD60FB6046
:10487000012383400D682B430B60274B80219C460E
:104880004904624413680B42FCD10122A3682168E9
:1048900018339A408A608B681342FCD00122A168C9
:1048A00020688A4003689343036000231822009322
:1048B000013302F0C9FAA16823684A005218D200F5
:1048C0009B18164AD8331A60D02380221B06920404
:1048D0005A61FFF759FA002005B0F0BCBB46B2465A
:1048E000A946A046F0BDC04600F8FF0F040000C076
:1048F0004C0800000000E0AF7F00FEFFD010000079
:104900002060000040600000440400000C000050E3
:10491000FD7F00FF190040001000005003A00000C0
:10492000F0B5DE4657464E464546E0B585B002AC8A
:10493000A246724CD202224009070A43704901275D
:104940000A430292524653606E4BC4586E4B216824
:104950009C466144090D06311820C9B2FBF7AAFC38
:10496000694B21689C466144090D06311D20C9B27E
:10497000FBF7A0FC012200211D20FBF7B5FCD02392
:1049800080221B0692049A613A00A16820688A403E
:1049900003686568934303604B005B18DB00C6182F
:1049A000CC3632689C4690466A1C1303574A9B4695
:1049B000914642464B461A4013005A46ED011A43AF
:1049C0002A433260524A634694468022C3186344A5
:1049D00012061A601A60802200235204009201938A
:1049E00002F0D0F93A00A0682168031D9A40994668
:1049F00080239B01CB181A6002003D0008329540CD
:104A00001D603F2382008A18136143001B18DB00DE
:104A1000404DCB18D8331D60002515613E4A1F3527
:104A20001A60626880262A401A600C23E356A0228E
:104A30009F409C46394BD205D75063469A01A0232C
:104A4000DB05D718364B7604D5182B683342FCD1DA
:104A50006546ED02AC46334D2B4BA84665464646AF
:104A6000CB181B0DDB001B183540DB032B432E4DF1
:104A70002B4355463D604D46AE0002258E197E60A3
:104A8000BD60FB60012383400D682B430B60274B07
:104A900080219C464904624413680B42FCD10122E8
:104AA000A368216818339A408A608B681342FCD04F
:104AB0000122A16820688A400368934303600023B1
:104AC00018220093013302F0BFF9A16823684A005D
:104AD0005218D2009B18164AD8331A60D02380226D
:104AE0001B0692045A61FFF74FF9002005B0F0BC95
:104AF000BB46B246A946A046F0BDC04600F8FF0F2F
:104B0000020000C04C0800000000E0AF7F00FEFF84
:104B1000D01000002060000040600000440400004D
:104B20000C000050FD7F00FF1900400010000050F5
:104B300003A00000F0B5DE4657464E464546E0B5B8
:104B400085B002ACA246724CD202224009070A4349
:104B5000704901270A430292524653606E4BC45873
:104B60006E4B21689C466144090D06311820C9B27C
:104B7000FBF7A0FB694B21689C466144090D063197
:104B80001D20C9B2FBF796FB012200211D20FBF777
:104B9000ABFBD02380221B0692049A613A00A168E5
:104BA00020688A4003686568934303604B005B1884
:104BB000DB00C618CC3632689C4690466A1C13034C
:104BC000574A9B46914642464B461A4013005A4666
:104BD000ED011A432A433260524A634694468022CA
:104BE000C318634412061A601A608022002352041C
:104BF0000092019302F0C6F83A00A0682168031DF4
:104C00009A40994680239B01CB181A6002003D0010
:104C1000083295401D603F2382008A1813614300CB
:104C20001B18DB00404DCB18D8331D6000251561E3
:104C30003E4A1F351A60626880262A401A600C239B
:104C4000E356A0229F409C46394BD205D75063467D
:104C50009A01A023DB05D718364B7604D5182B68AC
:104C60003342FCD16546ED02AC46334D2B4BA84692
:104C700065464646CB181B0DDB001B183540DB0391
:104C80002B432E4D2B4355463D604D46AE0002252D
:104C90008E197E60BD60FB60012383400D682B434D
:104CA0000B60274B80219C464904624413680B42E9
:104CB000FCD10122A368216818339A408A608B686E
:104CC0001342FCD00122A16820688A400368934304
:104CD0000360002318220093013302F0B5F8A168A5
:104CE00023684A005218D2009B18164AD8331A601B
:104CF000D02380221B0692045A61FFF745F800205A
:104D000005B0F0BCBB46B246A946A046F0BDC046C1
:104D100000F8FF0F010000C04C0800000000E0AFE9
:104D20007F00FEFFD0100000206000004060000007
:104D3000440400000C000050FD7F00FF19004000FB
:104D40001000005003A00000F0B5DE1C1D0003237E
:104D5000040083B09E43012924D004202133164F40
:104D6000D2023A4009072A430A4380210430C90588
:104D700080000A4320180436426000210096042275
:104D80002000E318FFF7DAF8061E0FD12100089B78
:104D90002831994203D02A001800FDF74BFA300061
:104DA00003B0F0BD002010361133D8E731000348BE
:104DB000FEF764FFF3E7C04600F8FF0FCC7E00105B
:104DC000F0B557464546DE464E4692461A00033336
:104DD000E0B50500180003238BB09843804602AF6E
:104DE000022923D02800BB6C2830984244D0534677
:104DF000274CDB020907234011431943C0231B063C
:104E00000B436B62B96CFDF715FA4246290000238B
:104E10002800043224310093FFF790F8BD4609B012
:104E2000F0BCBB46B246A946A046F0BD194BFA24D9
:104E3000994688469346A4007860013C16D34B46B9
:104E4000BB6008230422009300212800FB186E4653
:104E5000FFF774F8002800D1F868B5468006ECD555
:104E60007B6841465A469846002CBBD10A48FEF75B
:104E70007DFE06204042D1E7534609071143C02278
:104E80000348DB0203400B43120613436B62BCE78B
:104E900000F8FF0F0440004014810010836870B5D3
:104EA000CC0B0500E403A3420DD0802263405204E2
:104EB000934219D2FF22120413420CD1FF22120294
:104EC000134201D1AC6070BD012128000A4A230AB7
:104ED000FFF730FEF6E7230C01212800074AFFF711
:104EE00029FEAB686340E9E7230E0121044AFFF77E
:104EF00021FEAB686340DDE70A0001000B00010002
:104F00000C000100F0B5C646033000B58E1E8408C3
:104F100010D0631E072B03D90B0033435B0721D04E
:104F20003200A4003419938855881B042B4308C20F
:104F3000A242F8D10B885BBA73808B1C1A6813BA33
:104F400073608B1D186803BAB3600B000A331B68CB
:104F50001BBAF3608A23DB059A421BD0300080BC69
:104F6000B846F0BDC3089C46DB0030000D009846F3
:104F7000CF180CCD0CC0BD42FBD163465F00434649
:104F8000F518C818BC42D5D0438802881B041343C7
:104F90002B60CFE780231B059842DFD10B000A006E
:104FA0000D00B232AE3310681B882E352A691C18EA
:104FB000944216D83A31C918081881423AD20027CB
:104FC000002404E0DD2A10D0C918884220D94B788B
:104FD0000233CA189042F7D30A78302AF2D10C0073
:104FE000F2E701235B42B360B8E78A1C90468A78F7
:104FF000002AE9D142465278502AE5D142469278B9
:10500000F22AE1D14246D278012ADDD10F00DBE756
:10501000631E9C41A400002F01D002221443AA8BDE
:10502000D20601D5012214438422B15CB15204326C
:10503000B45493E70024F2E7F0B5C6460E0005002D
:105040000B0000B501211A4AFFF774FD330001215E
:105050002800174AFFF76EFD002E25D101230027F7
:10506000984640240BE0012002F0A0F9013C3300F7
:10507000012128000E4AFFF75DFD002C0FD0012111
:1050800028000B4AFFF70EFA0028ECDB42460240EC
:10509000BA42E8D1FF28E6D080BCB846F0BD310066
:1050A0000448FEF7EBFDF7E7032303279846D8E70C
:1050B0001F000100FC7E0010F0B5D6464F46464664
:1050C000C0B5C37C05008A46170082B0002B05D10D
:1050D000006801F0EDFC012800D079E0280001F023
:1050E000EDFCAB7C002B05D101212800FFF7A4FFCC
:1050F0000123AB74EB7C002B00D173E0FA24A400F5
:1051000002E0013C002C63D0082200212800FFF7B8
:1051100075F9431CF5D0C30558D5C02203035B0DB8
:10512000591ED200914200D3B3E0800700D5B0E011
:105130002C0028340022022128000094FFF704FEEE
:1051400000283BD1298D6A8D00293DD00123EB74C5
:10515000614B9C460B005340634500D0A3E0D24313
:1051600092B2914200D09BE00B2900D8A2E0237AB2
:10517000AB730F2362791340022B2CD8627A9446CA
:1051800066466A7BB21AD2B2142A45D90C2926D0B7
:10519000012B52D0022B41D1102900D890E0E279A6
:1051A0000220A218D3789B000433D31892781C1BDA
:1051B000D2070C1B1443524614603B6002B0E0BCA3
:1051C000BA46B146A846F0BD002ABFD10023EB7411
:1051D00001204042F2E70B2040420C29EED104208E
:1051E0004042EBE7042200212800FFF731F983B2A7
:1051F00098463A4B040099461B88434502D08623C3
:1052000003423AD14346002B3DD14B4642461A80D9
:10521000A40600D572E7DBE76E73B7E71B2955D903
:10522000E3792D8AE3185A8995424CD152461033BE
:105230001C1B0C1B14603B60C0E7102949D9E379A3
:10524000E318DA78920004329B181A7B1C1B091BA6
:10525000882A32D15A7B6C2A2FD1DA7C002A26D1B7
:105260001A7D102A23D15A7D182A20D15246183986
:105270001833116001203B60A0E70104090C1848B5
:10528000FEF7FCFCBEE7042200212800FFF748FBE4
:10529000BBE7012301212800124AFFF74BFC95E7E9
:1052A000022040428AE71048FEF7E8FC90E70A2017
:1052B000404283E70320404280E7092040427DE7E7
:1052C000072040427AE70620404277E70520404227
:1052D00074E70820404271E7FFFF0000B61300208A
:1052E000207F00100D0001004C7F0010F0B5DE465D
:1052F000574645464E460400E0B585B09A46884676
:10530000934601F0DBFBA37C002B05D1012120009B
:10531000FFF792FE0123A374A37B002B24D02F4F11
:105320002F4EBB6A99460EE0A17B002903D1237B57
:10533000627B9A421CD14B46ED1AB54245D8FA2001
:10534000800001F0FFFF200003AA02A9BD6AFFF759
:10535000B3FE0128E8D103990298FFF7D3FD0100BD
:10536000200001F0B1FBDFE7237B627B9A42D6D0BD
:105370005A4651460C3292B20A80D2430B714A808F
:10538000524641465171002251468A7141468E1E55
:10539000711E8E41012176428E43514601330E36F5
:1053A0000A814A81CE7123735B4603320F339343E4
:1053B0000091002202212000FFF702FD05B0F0BCA1
:1053C000BB46B246A946A046F0BD637B227B05489A
:1053D000FEF754FC02204042F0E7C0460040054082
:1053E00040420F00787F0010F0B557464E464546C4
:1053F000DE46E0B5294E9246B76A9846284AB36A17
:105400000500894683B0DB1B93422ED8254B9B4673
:1054100010E0022820D0002803DB01005846FEF7E8
:105420002DFCFA20800001F08DFFB36A1C4ADB1BC3
:1054300093421AD86946280001AAFFF73DFE041ED0
:1054400023D00128E5D101990098FFF75BFD010009
:10545000280001F039FBE4E70099019B4A00286825
:105460005208C90F01F0D4FFDBE7434652464946D4
:1054700002240D48FEF702FC6442200003B0F0BC99
:10548000BB46B246A946A046F0BD009A424500D9A7
:10549000424601990C9802F061FAEEE7004005409F
:1054A0003F420F009C7F0010C87F0010F0B54546BA
:1054B000904640225746DE464E465242934692461A
:1054C000E0B50024070083B08B449A4440222300B7
:1054D00040349146444502D94246D31A99465B4628
:1054E0001D19BB68EE0BF6039E420DD0802273405F
:1054F0005204934227D2FF22120413422FD1FF22DB
:105500001202134218D1BE60802253466D041B194B
:105510006D0C1202009301214B4638002A43FFF71D
:105520004FFC002801D14445D0D303B0F0BCBB46AA
:10553000B246A946A046F0BD012138000C4A330A04
:10554000FFF7F8FADFE700230A4A01213800FFF7E6
:10555000F1FAFF22BB68120473401342CFD0330C20
:1055600001213800044AFFF7E5FABB687340C6E73B
:105570000A0001000C0001000B000100F0B5CE464E
:10558000474680B5060083B004000800170089462E
:1055900002F03CFA431C9846443605001A0049467E
:1055A0003000FCF747FE4346F2183B0A1770537071
:1055B0003B0C3F0E9370D7702A00802321326F1D61
:1055C0001B019A4225D80822238AFF3201339BB25D
:1055D00062639046063A2382FF3A1B041343E36357
:1055E00000233A00310023643000A76302F0B6F9CB
:1055F0002A0023000021200015322833FFF776FE11
:10560000002806D13B004246022120000096FFF709
:10561000EBFE03B0C0BCB946B046F0BDF0B5CE4617
:10562000474680B5060083B00400080099468846C6
:10563000170002F0EBF94436451C3A004946701950
:1056400002F08CF92A0041463000ED19FCF7F2FD1A
:105650002A0080231C321B019A4226D8218A0A9BE9
:10566000013189B221821B0309041943022308274F
:1056700019430023FF372A00E1632364310030001F
:105680006763A56302F06AF923002A000021200065
:1056900028331032FFF72AFE002806D12B003A00EB
:1056A000022120000096FFF79FFE03B0C0BCB94660
:1056B000B046F0BD836870B5CE0B04000D00F60354
:1056C0009E420DD0802273405204934239D2FF2271
:1056D000120413422CD1FF221202134221D1A660E0
:1056E00080226D046D0C12022A4301212000FEF776
:1056F000D9FEC025A36806006D05AB420FD08022FD
:105700006B405204934238D2FF221204134228D134
:10571000FF22120213421CD1C0235B05A36030009C
:1057200070BD01212000194A330AFFF703FAD6E7BA
:10573000330C01212000164AFFF7FCF9A3687340DF
:10574000C9E7330E0121134AFFF7F4F9A368734048
:10575000BDE7C023012120000C4A5B03FFF7EAF9F3
:10576000DAE7C0230A4A5B0101212000FFF7E2F9D2
:10577000C023A2685B055340CAE71823012120001B
:10578000044AFFF7D7F9A3686B40BDE70A000100A0
:105790000B0001000C000100F0B5C646CE0B0D0059
:1057A0008168040090461F0000B5F6038E420DD0BC
:1057B000802371405B04994266D2FF231B04194287
:1057C00059D1FF231B02194225D1A66080224346EE
:1057D0006D046D0C12022A43012B23D03B000121E2
:1057E0002000FEF793FFC025A3686D05AB420FD0E4
:1057F00080226B40520493421AD2FF2212041342B9
:1058000022D1FF22120213422DD1C0235B05A360D7
:1058100080BCB846F0BD012120001F4A330AFFF7C3
:1058200089F9D2E73B0001212000FFF783F9DAE78D
:1058300018231A4A01212000FFF77CF9FF22A368F0
:1058400012046B401342DCD0C023154A5B010121D6
:105850002000FFF76FF9C023A2685B055340FF22C9
:1058600012021342D1D0C023012120000A4A5B0357
:10587000FFF760F9C9E701212000094A330CFFF75F
:1058800059F9A16871409CE70121044A330EFFF7E2
:1058900051F9A168714090E70A0001000C00010075
:1058A0000B000100F8B5CE46474604000D0080B558
:1058B000012900D1E4E1D74BC82798463F02C02612
:1058C00041462000FFF7EAFA3A0001212000FEF7E6
:1058D000E9FDA3687605B34212D0802273405204DA
:1058E000934200D3E7E0FF221204134200D0EFE01E
:1058F000FF221202134200D0FAE0C0235B05A3602E
:1059000041462000FFF7CAFA3A0001212000FEF7C5
:10591000C9FDC022A368520506009146934212D0E9
:10592000534080225204934200D39EE1FF2212048E
:10593000134200D08DE1FF221202134200D080E119
:10594000C0235B05A360F60700D4A1E1012D00D1BF
:105950009BE1B14DB14E31002000FFF79FFA0323C8
:105960002A0001212000FFF7E5F8C022A3685205B4
:105970009146934212D0534080225204934200D366
:1059800054E1FF221204134200D037E1FF22120239
:10599000134200D02AE1C0235B05A3603100200040
:1059A000FFF77CFA2A0001212000FEF77BFDC022D0
:1059B000A36852059146934212D05340802252046C
:1059C000934200D307E1FF221204134200D0F6E015
:1059D000FF221202134200D0E9E0C0235B05A3605E
:1059E00041462000FFF75AFA3A00C0270023012160
:1059F0002000FFF79FF8A3687F05BB4212D08022EA
:105A00007B405204934200D3C8E0FF2212041342A9
:105A100000D0B7E0FF221202134200D0AAE0C02358
:105A20005B05A360C027012001F0C0FC310020000D
:105A3000FFF734FA01232A0001212000FFF77AF84A
:105A4000A3687F05BB4211D080227B405204934261
:105A500000D386E0FF221204134200D075E0FF223B
:105A60001202134269D1C0235B05A36031002000FC
:105A7000FFF714FA2A00C02501212000FEF712FDCD
:105A8000A3686D05AB420FD080226B405204934255
:105A90004AD2FF22120413423AD1FF2212021342C9
:105AA0002ED1C0235B05A360012001F07FFCC0BCA8
:105AB000B946B046F8BD1823594A01212000FFF726
:105AC00039F8FF22A36812047340134200D10FE794
:105AD000C023544A5B0101212000FFF72BF8C023AB
